{
  "contractName": "PatientRecords",
  "abi": [
    {
      "inputs": [
        {
          "internalType": "address[]",
          "name": "_hospitals",
          "type": "address[]"
        },
        {
          "internalType": "address[]",
          "name": "_patients",
          "type": "address[]"
        }
      ],
      "payable": false,
      "stateMutability": "nonpayable",
      "type": "constructor"
    },
    {
      "anonymous": false,
      "inputs": [
        {
          "indexed": true,
          "internalType": "address",
          "name": "sender",
          "type": "address"
        },
        {
          "indexed": false,
          "internalType": "uint256",
          "name": "value",
          "type": "uint256"
        }
      ],
      "name": "Deposit",
      "type": "event"
    },
    {
      "anonymous": false,
      "inputs": [
        {
          "indexed": false,
          "internalType": "address",
          "name": "hospital",
          "type": "address"
        }
      ],
      "name": "HospitalAddition",
      "type": "event"
    },
    {
      "anonymous": false,
      "inputs": [
        {
          "indexed": false,
          "internalType": "address",
          "name": "hospital",
          "type": "address"
        }
      ],
      "name": "HospitalRemoval",
      "type": "event"
    },
    {
      "anonymous": false,
      "inputs": [
        {
          "indexed": false,
          "internalType": "uint256",
          "name": "recordID",
          "type": "uint256"
        },
        {
          "indexed": false,
          "internalType": "address",
          "name": "patientAddress",
          "type": "address"
        }
      ],
      "name": "NameAddedToRecords",
      "type": "event"
    },
    {
      "anonymous": false,
      "inputs": [
        {
          "indexed": true,
          "internalType": "address",
          "name": "previousOwner",
          "type": "address"
        },
        {
          "indexed": true,
          "internalType": "address",
          "name": "newOwner",
          "type": "address"
        }
      ],
      "name": "OwnershipTransferred",
      "type": "event"
    },
    {
      "anonymous": false,
      "inputs": [
        {
          "indexed": false,
          "internalType": "address",
          "name": "patient",
          "type": "address"
        }
      ],
      "name": "PatientAddition",
      "type": "event"
    },
    {
      "anonymous": false,
      "inputs": [
        {
          "indexed": false,
          "internalType": "address",
          "name": "patientAddress",
          "type": "address"
        }
      ],
      "name": "PatientPaid",
      "type": "event"
    },
    {
      "anonymous": false,
      "inputs": [
        {
          "indexed": false,
          "internalType": "uint256",
          "name": "recordID",
          "type": "uint256"
        },
        {
          "indexed": false,
          "internalType": "address",
          "name": "patientAddress",
          "type": "address"
        }
      ],
      "name": "PatientRecordAdded",
      "type": "event"
    },
    {
      "anonymous": false,
      "inputs": [
        {
          "indexed": false,
          "internalType": "address",
          "name": "patient",
          "type": "address"
        }
      ],
      "name": "PatientRemoval",
      "type": "event"
    },
    {
      "anonymous": false,
      "inputs": [
        {
          "indexed": false,
          "internalType": "uint256",
          "name": "tokenReward",
          "type": "uint256"
        }
      ],
      "name": "TokenRewardSet",
      "type": "event"
    },
    {
      "payable": true,
      "stateMutability": "payable",
      "type": "fallback"
    },
    {
      "constant": true,
      "inputs": [],
      "name": "MAX_COUNT",
      "outputs": [
        {
          "internalType": "uint256",
          "name": "",
          "type": "uint256"
        }
      ],
      "payable": false,
      "stateMutability": "view",
      "type": "function"
    },
    {
      "constant": false,
      "inputs": [
        {
          "internalType": "address[]",
          "name": "tokens",
          "type": "address[]"
        }
      ],
      "name": "destroy",
      "outputs": [],
      "payable": false,
      "stateMutability": "nonpayable",
      "type": "function"
    },
    {
      "constant": true,
      "inputs": [
        {
          "internalType": "address",
          "name": "",
          "type": "address"
        }
      ],
      "name": "isHospital",
      "outputs": [
        {
          "internalType": "bool",
          "name": "",
          "type": "bool"
        }
      ],
      "payable": false,
      "stateMutability": "view",
      "type": "function"
    },
    {
      "constant": true,
      "inputs": [
        {
          "internalType": "address",
          "name": "",
          "type": "address"
        }
      ],
      "name": "isPatient",
      "outputs": [
        {
          "internalType": "bool",
          "name": "",
          "type": "bool"
        }
      ],
      "payable": false,
      "stateMutability": "view",
      "type": "function"
    },
    {
      "constant": true,
      "inputs": [],
      "name": "recordCount",
      "outputs": [
        {
          "internalType": "uint256",
          "name": "",
          "type": "uint256"
        }
      ],
      "payable": false,
      "stateMutability": "view",
      "type": "function"
    },
    {
      "constant": true,
      "inputs": [],
      "name": "springToken",
      "outputs": [
        {
          "internalType": "contract SpringToken",
          "name": "",
          "type": "address"
        }
      ],
      "payable": false,
      "stateMutability": "view",
      "type": "function"
    },
    {
      "constant": true,
      "inputs": [],
      "name": "tokenAddress",
      "outputs": [
        {
          "internalType": "address",
          "name": "",
          "type": "address"
        }
      ],
      "payable": false,
      "stateMutability": "view",
      "type": "function"
    },
    {
      "constant": true,
      "inputs": [],
      "name": "tokenRewardAmount",
      "outputs": [
        {
          "internalType": "uint256",
          "name": "",
          "type": "uint256"
        }
      ],
      "payable": false,
      "stateMutability": "view",
      "type": "function"
    },
    {
      "constant": false,
      "inputs": [
        {
          "internalType": "address payable",
          "name": "newOwner",
          "type": "address"
        }
      ],
      "name": "transferOwnership",
      "outputs": [],
      "payable": false,
      "stateMutability": "nonpayable",
      "type": "function"
    },
    {
      "constant": false,
      "inputs": [
        {
          "internalType": "address",
          "name": "_hospital",
          "type": "address"
        }
      ],
      "name": "addHospital",
      "outputs": [],
      "payable": false,
      "stateMutability": "nonpayable",
      "type": "function"
    },
    {
      "constant": false,
      "inputs": [
        {
          "internalType": "address",
          "name": "_hospital",
          "type": "address"
        }
      ],
      "name": "removeHospital",
      "outputs": [],
      "payable": false,
      "stateMutability": "nonpayable",
      "type": "function"
    },
    {
      "constant": false,
      "inputs": [
        {
          "internalType": "address",
          "name": "_patient",
          "type": "address"
        }
      ],
      "name": "addPatient",
      "outputs": [],
      "payable": false,
      "stateMutability": "nonpayable",
      "type": "function"
    },
    {
      "constant": false,
      "inputs": [
        {
          "internalType": "address",
          "name": "_patient",
          "type": "address"
        }
      ],
      "name": "removePatient",
      "outputs": [],
      "payable": false,
      "stateMutability": "nonpayable",
      "type": "function"
    },
    {
      "constant": false,
      "inputs": [
        {
          "internalType": "address",
          "name": "_patientAddress",
          "type": "address"
        },
        {
          "internalType": "address",
          "name": "_hospital",
          "type": "address"
        },
        {
          "internalType": "uint256",
          "name": "_admissionDate",
          "type": "uint256"
        },
        {
          "internalType": "uint256",
          "name": "_dischargeDate",
          "type": "uint256"
        },
        {
          "internalType": "uint256",
          "name": "_visitReason",
          "type": "uint256"
        }
      ],
      "name": "addRecord",
      "outputs": [],
      "payable": false,
      "stateMutability": "nonpayable",
      "type": "function"
    },
    {
      "constant": false,
      "inputs": [
        {
          "internalType": "uint256",
          "name": "_recordID",
          "type": "uint256"
        },
        {
          "internalType": "string",
          "name": "_name",
          "type": "string"
        }
      ],
      "name": "addName",
      "outputs": [],
      "payable": false,
      "stateMutability": "nonpayable",
      "type": "function"
    },
    {
      "constant": true,
      "inputs": [
        {
          "internalType": "uint256",
          "name": "_recordID",
          "type": "uint256"
        },
        {
          "internalType": "address",
          "name": "_patientAddress",
          "type": "address"
        }
      ],
      "name": "getRecord",
      "outputs": [
        {
          "internalType": "string",
          "name": "_name",
          "type": "string"
        },
        {
          "internalType": "address",
          "name": "_hospital",
          "type": "address"
        },
        {
          "internalType": "uint256",
          "name": "_admissionDate",
          "type": "uint256"
        },
        {
          "internalType": "uint256",
          "name": "_dischargeDate",
          "type": "uint256"
        },
        {
          "internalType": "uint256",
          "name": "_visitReason",
          "type": "uint256"
        }
      ],
      "payable": false,
      "stateMutability": "view",
      "type": "function"
    },
    {
      "constant": true,
      "inputs": [
        {
          "internalType": "string",
          "name": "_name",
          "type": "string"
        }
      ],
      "name": "getRecordByName",
      "outputs": [
        {
          "internalType": "uint256",
          "name": "numberOfRecords",
          "type": "uint256"
        }
      ],
      "payable": false,
      "stateMutability": "view",
      "type": "function"
    },
    {
      "constant": true,
      "inputs": [
        {
          "internalType": "uint256",
          "name": "from",
          "type": "uint256"
        },
        {
          "internalType": "uint256",
          "name": "to",
          "type": "uint256"
        }
      ],
      "name": "getCurrentPatients",
      "outputs": [
        {
          "internalType": "uint256",
          "name": "_numberOfPatients",
          "type": "uint256"
        }
      ],
      "payable": false,
      "stateMutability": "view",
      "type": "function"
    },
    {
      "constant": false,
      "inputs": [
        {
          "internalType": "uint256",
          "name": "_tokenReward",
          "type": "uint256"
        }
      ],
      "name": "setSpringTokenReward",
      "outputs": [],
      "payable": false,
      "stateMutability": "nonpayable",
      "type": "function"
    },
    {
      "constant": true,
      "inputs": [
        {
          "internalType": "address",
          "name": "_patientAddress",
          "type": "address"
        }
      ],
      "name": "getPatientBalance",
      "outputs": [
        {
          "internalType": "uint256",
          "name": "",
          "type": "uint256"
        }
      ],
      "payable": false,
      "stateMutability": "view",
      "type": "function"
    }
  ],
  "bytecode": "0x608060405260006007553480156200001657600080fd5b506040516200453338038062004533833981810160405260408110156200003c57600080fd5b81019080805160405193929190846401000000008211156200005d57600080fd5b838201915060208201858111156200007457600080fd5b82518660208202830111640100000000821117156200009257600080fd5b8083526020830192505050908051906020019060200280838360005b83811015620000cb578082015181840152602081019050620000ae565b5050505090500160405260200180516040519392919084640100000000821115620000f557600080fd5b838201915060208201858111156200010c57600080fd5b82518660208202830111640100000000821117156200012a57600080fd5b8083526020830192505050908051906020019060200280838360005b838110156200016357808201518184015260208101905062000146565b50505050905001604052505050336000806101000a81548173ffffffffffffffffffffffffffffffffffffffff021916908373ffffffffffffffffffffffffffffffffffffffff160217905550815160328111158015620001c5575060008114155b620001cf57600080fd5b815160328111158015620001e4575060008114155b620001ee57600080fd5b60008090505b8451811015620002c757600073ffffffffffffffffffffffffffffffffffffffff168582815181106200022357fe5b602002602001015173ffffffffffffffffffffffffffffffffffffffff1614156200024d57600080fd5b6001600360008784815181106200026057fe5b602002602001015173ffffffffffffffffffffffffffffffffffffffff1673ffffffffffffffffffffffffffffffffffffffff16815260200190815260200160002060006101000a81548160ff0219169083151502179055508080600101915050620001f4565b600090505b83518110156200040b5760036000858381518110620002e757fe5b602002602001015173ffffffffffffffffffffffffffffffffffffffff1673ffffffffffffffffffffffffffffffffffffffff16815260200190815260200160002060009054906101000a900460ff16156200034257600080fd5b600073ffffffffffffffffffffffffffffffffffffffff168482815181106200036757fe5b602002602001015173ffffffffffffffffffffffffffffffffffffffff1614156200039157600080fd5b600160026000868481518110620003a457fe5b602002602001015173ffffffffffffffffffffffffffffffffffffffff1673ffffffffffffffffffffffffffffffffffffffff16815260200190815260200160002060006101000a81548160ff0219169083151502179055508080600101915050620002cc565b620004476040516200041d9062000654565b604051809103906000f0801580156200043a573d6000803e3d6000fd5b506200046b60201b60201c565b60006103e890506200045f81620005a960201b60201c565b50505050505062000662565b6000809054906101000a900473ffffffffffffffffffffffffffffffffffffffff1673ffffffffffffffffffffffffffffffffffffffff163373ffffffffffffffffffffffffffffffffffffffff1614620004c557600080fd5b80600073ffffffffffffffffffffffffffffffffffffffff168173ffffffffffffffffffffffffffffffffffffffff1614156200050157600080fd5b81600160006101000a81548173ffffffffffffffffffffffffffffffffffffffff021916908373ffffffffffffffffffffffffffffffffffffffff160217905550600160009054906101000a900473ffffffffffffffffffffffffffffffffffffffff16600960006101000a81548173ffffffffffffffffffffffffffffffffffffffff021916908373ffffffffffffffffffffffffffffffffffffffff1602179055505050565b6000809054906101000a900473ffffffffffffffffffffffffffffffffffffffff1673ffffffffffffffffffffffffffffffffffffffff163373ffffffffffffffffffffffffffffffffffffffff16146200060357600080fd5b80600081116200061257600080fd5b816008819055507fe69c04680592296855fcdd3a9ba119cc285c237feb064b473d5891f5b7541ad2826040518082815260200191505060405180910390a15050565b611505806200302e83390190565b6129bc80620006726000396000f3fe60806040526004361061011f5760003560e01c806382d8185c116100a0578063a969890611610064578063a9698906146107c7578063bdf6c67314610818578063c6786e5a14610881578063ddd15e8714610946578063f2fde38b146109d55761011f565b806382d8185c146105955780638f9c79ed146106b1578063900407bc1461071a5780639c642d5d146107455780639d76ea58146107705761011f565b80635d85fa62116100e75780635d85fa62146104185780636d263ceb146104715780636efa2531146104c257806377163c1d146105195780637d0d6257146105445761011f565b80631450d12b146101795780631b470bc71461024b57806323eb444e1461029c578063337e9f4a146102d757806350000712146103b3575b6000341115610177573373ffffffffffffffffffffffffffffffffffffffff167fe1fffcc4923d04b559f4d29a8bfc6cda04eb5b0d3c460751c2402c5c5cc9109c346040518082815260200191505060405180910390a25b005b34801561018557600080fd5b506102496004803603604081101561019c57600080fd5b8101908080359060200190929190803590602001906401000000008111156101c357600080fd5b8201836020820111156101d557600080fd5b803590602001918460018302840111640100000000831117156101f757600080fd5b91908080601f016020809104026020016040519081016040528093929190818152602001838380828437600081840152601f19601f820116905080830192505050505050509192919290505050610a26565b005b34801561025757600080fd5b5061029a6004803603602081101561026e57600080fd5b81019080803573ffffffffffffffffffffffffffffffffffffffff169060200190929190505050610ee8565b005b3480156102a857600080fd5b506102d5600480360360208110156102bf57600080fd5b81019080803590602001909291905050506110ed565b005b3480156102e357600080fd5b5061039d600480360360208110156102fa57600080fd5b810190808035906020019064010000000081111561031757600080fd5b82018360208201111561032957600080fd5b8035906020019184600183028401116401000000008311171561034b57600080fd5b91908080601f016020809104026020016040519081016040528093929190818152602001838380828437600081840152601f19601f820116905080830192505050505050509192919290505050611196565b6040518082815260200191505060405180910390f35b3480156103bf57600080fd5b50610402600480360360208110156103d657600080fd5b81019080803573ffffffffffffffffffffffffffffffffffffffff169060200190929190505050611359565b6040518082815260200191505060405180910390f35b34801561042457600080fd5b5061045b6004803603604081101561043b57600080fd5b810190808035906020019092919080359060200190929190505050611495565b6040518082815260200191505060405180910390f35b34801561047d57600080fd5b506104c06004803603602081101561049457600080fd5b81019080803573ffffffffffffffffffffffffffffffffffffffff16906020019092919050505061155f565b005b3480156104ce57600080fd5b506104d7611764565b604051808273ffffffffffffffffffffffffffffffffffffffff1673ffffffffffffffffffffffffffffffffffffffff16815260200191505060405180910390f35b34801561052557600080fd5b5061052e61178a565b6040518082815260200191505060405180910390f35b34801561055057600080fd5b506105936004803603602081101561056757600080fd5b81019080803573ffffffffffffffffffffffffffffffffffffffff16906020019092919050505061178f565b005b3480156105a157600080fd5b506105ee600480360360408110156105b857600080fd5b8101908080359060200190929190803573ffffffffffffffffffffffffffffffffffffffff1690602001909291905050506118fe565b60405180806020018673ffffffffffffffffffffffffffffffffffffffff1673ffffffffffffffffffffffffffffffffffffffff168152602001858152602001848152602001838152602001828103825287818151815260200191508051906020019080838360005b83811015610672578082015181840152602081019050610657565b50505050905090810190601f16801561069f5780820380516001836020036101000a031916815260200191505b50965050505050505060405180910390f35b3480156106bd57600080fd5b50610700600480360360208110156106d457600080fd5b81019080803573ffffffffffffffffffffffffffffffffffffffff169060200190929190505050611d51565b604051808215151515815260200191505060405180910390f35b34801561072657600080fd5b5061072f611d71565b6040518082815260200191505060405180910390f35b34801561075157600080fd5b5061075a611d77565b6040518082815260200191505060405180910390f35b34801561077c57600080fd5b50610785611d7d565b604051808273ffffffffffffffffffffffffffffffffffffffff1673ffffffffffffffffffffffffffffffffffffffff16815260200191505060405180910390f35b3480156107d357600080fd5b50610816600480360360208110156107ea57600080fd5b81019080803573ffffffffffffffffffffffffffffffffffffffff169060200190929190505050611da3565b005b34801561082457600080fd5b506108676004803603602081101561083b57600080fd5b81019080803573ffffffffffffffffffffffffffffffffffffffff169060200190929190505050611f12565b604051808215151515815260200191505060405180910390f35b34801561088d57600080fd5b50610944600480360360208110156108a457600080fd5b81019080803590602001906401000000008111156108c157600080fd5b8201836020820111156108d357600080fd5b803590602001918460208302840111640100000000831117156108f557600080fd5b919080806020026020016040519081016040528093929190818152602001838360200280828437600081840152601f19601f820116905080830192505050505050509192919290505050611f32565b005b34801561095257600080fd5b506109d3600480360360a081101561096957600080fd5b81019080803573ffffffffffffffffffffffffffffffffffffffff169060200190929190803573ffffffffffffffffffffffffffffffffffffffff16906020019092919080359060200190929190803590602001909291908035906020019092919050505061219c565b005b3480156109e157600080fd5b50610a24600480360360208110156109f857600080fd5b81019080803573ffffffffffffffffffffffffffffffffffffffff169060200190929190505050612608565b005b33600260008273ffffffffffffffffffffffffffffffffffffffff1673ffffffffffffffffffffffffffffffffffffffff16815260200190815260200160002060009054906101000a900460ff16610a7d57600080fd5b823373ffffffffffffffffffffffffffffffffffffffff166004600083815260200190815260200160002060003373ffffffffffffffffffffffffffffffffffffffff1673ffffffffffffffffffffffffffffffffffffffff16815260200190815260200160002060020160009054906101000a900473ffffffffffffffffffffffffffffffffffffffff1673ffffffffffffffffffffffffffffffffffffffff1614610b2957600080fd5b833360006004600084815260200190815260200160002060008373ffffffffffffffffffffffffffffffffffffffff1673ffffffffffffffffffffffffffffffffffffffff16815260200190815260200160002060030160009054906101000a900473ffffffffffffffffffffffffffffffffffffffff169050600073ffffffffffffffffffffffffffffffffffffffff168173ffffffffffffffffffffffffffffffffffffffff161415610bdd57600080fd5b856060819050600081511415610bf257600080fd5b8833600015156004600084815260200190815260200160002060008373ffffffffffffffffffffffffffffffffffffffff1673ffffffffffffffffffffffffffffffffffffffff16815260200190815260200160002060000160009054906101000a900460ff16151514610c6557600080fd5b6001600460008d815260200190815260200160002060003373ffffffffffffffffffffffffffffffffffffffff1673ffffffffffffffffffffffffffffffffffffffff16815260200190815260200160002060000160006101000a81548160ff02191690831515021790555089600460008d815260200190815260200160002060003373ffffffffffffffffffffffffffffffffffffffff1673ffffffffffffffffffffffffffffffffffffffff1681526020019081526020016000206001019080519060200190610d389291906128e2565b506000600460008d815260200190815260200160002060003373ffffffffffffffffffffffffffffffffffffffff1673ffffffffffffffffffffffffffffffffffffffff16815260200190815260200160002060030160009054906101000a900473ffffffffffffffffffffffffffffffffffffffff1690506001600660008373ffffffffffffffffffffffffffffffffffffffff1673ffffffffffffffffffffffffffffffffffffffff1681526020019081526020016000208c6040518082805190602001908083835b60208310610e265780518252602082019150602081019050602083039250610e03565b6001836020036101000a038019825116818451168082178552505050505050905001915050908152602001604051809103902060008282540192505081905550610e6f33612759565b7ff961dcbb7de5f5ad2d484ef309a56b535546c0b93a13c509af81775c0f1afec88c33604051808381526020018273ffffffffffffffffffffffffffffffffffffffff1673ffffffffffffffffffffffffffffffffffffffff1681526020019250505060405180910390a1505050505050505050505050565b6000809054906101000a900473ffffffffffffffffffffffffffffffffffffffff1673ffffffffffffffffffffffffffffffffffffffff163373ffffffffffffffffffffffffffffffffffffffff1614610f4157600080fd5b80600360008273ffffffffffffffffffffffffffffffffffffffff1673ffffffffffffffffffffffffffffffffffffffff16815260200190815260200160002060009054906101000a900460ff1615610f9957600080fd5b81600260008273ffffffffffffffffffffffffffffffffffffffff1673ffffffffffffffffffffffffffffffffffffffff16815260200190815260200160002060009054906101000a900460ff1615610ff157600080fd5b82600073ffffffffffffffffffffffffffffffffffffffff168173ffffffffffffffffffffffffffffffffffffffff16141561102c57600080fd5b6001600360008673ffffffffffffffffffffffffffffffffffffffff1673ffffffffffffffffffffffffffffffffffffffff16815260200190815260200160002060006101000a81548160ff0219169083151502179055507f287ab756b8d47062a978ed6e40674fb341af71a7b67a1c47d68c41816e77f71084604051808273ffffffffffffffffffffffffffffffffffffffff1673ffffffffffffffffffffffffffffffffffffffff16815260200191505060405180910390a150505050565b6000809054906101000a900473ffffffffffffffffffffffffffffffffffffffff1673ffffffffffffffffffffffffffffffffffffffff163373ffffffffffffffffffffffffffffffffffffffff161461114657600080fd5b806000811161115457600080fd5b816008819055507fe69c04680592296855fcdd3a9ba119cc285c237feb064b473d5891f5b7541ad2826040518082815260200191505060405180910390a15050565b600033600360008273ffffffffffffffffffffffffffffffffffffffff1673ffffffffffffffffffffffffffffffffffffffff16815260200190815260200160002060009054906101000a900460ff166111ef57600080fd5b6000600660003373ffffffffffffffffffffffffffffffffffffffff1673ffffffffffffffffffffffffffffffffffffffff168152602001908152602001600020846040518082805190602001908083835b602083106112645780518252602082019150602081019050602083039250611241565b6001836020036101000a0380198251168184511680821785525050505050509050019150509081526020016040518091039020541461134e57600660003373ffffffffffffffffffffffffffffffffffffffff1673ffffffffffffffffffffffffffffffffffffffff168152602001908152602001600020836040518082805190602001908083835b6020831061131057805182526020820191506020810190506020830392506112ed565b6001836020036101000a0380198251168184511680821785525050505050509050019150509081526020016040518091039020549150819150611353565b600091505b50919050565b60008060009054906101000a900473ffffffffffffffffffffffffffffffffffffffff1673ffffffffffffffffffffffffffffffffffffffff163373ffffffffffffffffffffffffffffffffffffffff16146113b457600080fd5b600160009054906101000a900473ffffffffffffffffffffffffffffffffffffffff1673ffffffffffffffffffffffffffffffffffffffff166370a08231836040518263ffffffff1660e01b8152600401808273ffffffffffffffffffffffffffffffffffffffff1673ffffffffffffffffffffffffffffffffffffffff16815260200191505060206040518083038186803b15801561145357600080fd5b505afa158015611467573d6000803e3d6000fd5b505050506040513d602081101561147d57600080fd5b81019080805190602001909291905050509050919050565b600033600360008273ffffffffffffffffffffffffffffffffffffffff1673ffffffffffffffffffffffffffffffffffffffff16815260200190815260200160002060009054906101000a900460ff166114ee57600080fd5b6000809250600090505b600754811015611557578460056000838152602001908152602001600020600001541015801561153e575083600560008381526020019081526020016000206001015411155b1561154a576001830192505b80806001019150506114f8565b505092915050565b6000809054906101000a900473ffffffffffffffffffffffffffffffffffffffff1673ffffffffffffffffffffffffffffffffffffffff163373ffffffffffffffffffffffffffffffffffffffff16146115b857600080fd5b80600260008273ffffffffffffffffffffffffffffffffffffffff1673ffffffffffffffffffffffffffffffffffffffff16815260200190815260200160002060009054906101000a900460ff161561161057600080fd5b81600360008273ffffffffffffffffffffffffffffffffffffffff1673ffffffffffffffffffffffffffffffffffffffff16815260200190815260200160002060009054906101000a900460ff161561166857600080fd5b82600073ffffffffffffffffffffffffffffffffffffffff168173ffffffffffffffffffffffffffffffffffffffff1614156116a357600080fd5b6001600260008673ffffffffffffffffffffffffffffffffffffffff1673ffffffffffffffffffffffffffffffffffffffff16815260200190815260200160002060006101000a81548160ff0219169083151502179055507ff75424a59c353b95f24d9c0d7860f6092d93693015907a3e3686dad567659ed984604051808273ffffffffffffffffffffffffffffffffffffffff1673ffffffffffffffffffffffffffffffffffffffff16815260200191505060405180910390a150505050565b600160009054906101000a900473ffffffffffffffffffffffffffffffffffffffff1681565b603281565b6000809054906101000a900473ffffffffffffffffffffffffffffffffffffffff1673ffffffffffffffffffffffffffffffffffffffff163373ffffffffffffffffffffffffffffffffffffffff16146117e857600080fd5b80600260008273ffffffffffffffffffffffffffffffffffffffff1673ffffffffffffffffffffffffffffffffffffffff16815260200190815260200160002060009054906101000a900460ff1661183f57600080fd5b6000600260008473ffffffffffffffffffffffffffffffffffffffff1673ffffffffffffffffffffffffffffffffffffffff16815260200190815260200160002060006101000a81548160ff0219169083151502179055507fd00d169b387ed019da2c547c0301001cb83f928efec4dac9146387fabe162ccb82604051808273ffffffffffffffffffffffffffffffffffffffff1673ffffffffffffffffffffffffffffffffffffffff16815260200191505060405180910390a15050565b6060600080600080868660006004600084815260200190815260200160002060008373ffffffffffffffffffffffffffffffffffffffff1673ffffffffffffffffffffffffffffffffffffffff16815260200190815260200160002060030160009054906101000a900473ffffffffffffffffffffffffffffffffffffffff169050600073ffffffffffffffffffffffffffffffffffffffff168173ffffffffffffffffffffffffffffffffffffffff1614156119ba57600080fd5b8989600115156004600084815260200190815260200160002060008373ffffffffffffffffffffffffffffffffffffffff1673ffffffffffffffffffffffffffffffffffffffff16815260200190815260200160002060000160009054906101000a900460ff16151514611a2d57600080fd5b8b8b3373ffffffffffffffffffffffffffffffffffffffff166004600084815260200190815260200160002060008373ffffffffffffffffffffffffffffffffffffffff1673ffffffffffffffffffffffffffffffffffffffff16815260200190815260200160002060030160009054906101000a900473ffffffffffffffffffffffffffffffffffffffff1673ffffffffffffffffffffffffffffffffffffffff1614611ada57600080fd5b600460008f815260200190815260200160002060008e73ffffffffffffffffffffffffffffffffffffffff1673ffffffffffffffffffffffffffffffffffffffff1681526020019081526020016000206001018054600181600116156101000203166002900480601f016020809104026020016040519081016040528092919081815260200182805460018160011615610100020316600290048015611bc15780601f10611b9657610100808354040283529160200191611bc1565b820191906000526020600020905b815481529060010190602001808311611ba457829003601f168201915b50505050509b50600460008f815260200190815260200160002060008e73ffffffffffffffffffffffffffffffffffffffff1673ffffffffffffffffffffffffffffffffffffffff16815260200190815260200160002060030160009054906101000a900473ffffffffffffffffffffffffffffffffffffffff169a50600460008f815260200190815260200160002060008e73ffffffffffffffffffffffffffffffffffffffff1673ffffffffffffffffffffffffffffffffffffffff168152602001908152602001600020600401549950600460008f815260200190815260200160002060008e73ffffffffffffffffffffffffffffffffffffffff1673ffffffffffffffffffffffffffffffffffffffff168152602001908152602001600020600501549850600460008f815260200190815260200160002060008e73ffffffffffffffffffffffffffffffffffffffff1673ffffffffffffffffffffffffffffffffffffffff168152602001908152602001600020600601549750505050505050509295509295909350565b60026020528060005260406000206000915054906101000a900460ff1681565b60075481565b60085481565b600960009054906101000a900473ffffffffffffffffffffffffffffffffffffffff1681565b6000809054906101000a900473ffffffffffffffffffffffffffffffffffffffff1673ffffffffffffffffffffffffffffffffffffffff163373ffffffffffffffffffffffffffffffffffffffff1614611dfc57600080fd5b80600360008273ffffffffffffffffffffffffffffffffffffffff1673ffffffffffffffffffffffffffffffffffffffff16815260200190815260200160002060009054906101000a900460ff16611e5357600080fd5b6000600360008473ffffffffffffffffffffffffffffffffffffffff1673ffffffffffffffffffffffffffffffffffffffff16815260200190815260200160002060006101000a81548160ff0219169083151502179055507fbfb48ce53ec1045d105aa1e3d52a1e02185802cf0f94b31ce88866cffb0bf4ce82604051808273ffffffffffffffffffffffffffffffffffffffff1673ffffffffffffffffffffffffffffffffffffffff16815260200191505060405180910390a15050565b60036020528060005260406000206000915054906101000a900460ff1681565b6000809054906101000a900473ffffffffffffffffffffffffffffffffffffffff1673ffffffffffffffffffffffffffffffffffffffff163373ffffffffffffffffffffffffffffffffffffffff1614611f8b57600080fd5b60008090505b8151811015612161576000828281518110611fa857fe5b6020026020010151905060008173ffffffffffffffffffffffffffffffffffffffff166370a08231306040518263ffffffff1660e01b8152600401808273ffffffffffffffffffffffffffffffffffffffff1673ffffffffffffffffffffffffffffffffffffffff16815260200191505060206040518083038186803b15801561203157600080fd5b505afa158015612045573d6000803e3d6000fd5b505050506040513d602081101561205b57600080fd5b810190808051906020019092919050505090508173ffffffffffffffffffffffffffffffffffffffff1663a9059cbb6000809054906101000a900473ffffffffffffffffffffffffffffffffffffffff16836040518363ffffffff1660e01b8152600401808373ffffffffffffffffffffffffffffffffffffffff1673ffffffffffffffffffffffffffffffffffffffff16815260200182815260200192505050602060405180830381600087803b15801561211657600080fd5b505af115801561212a573d6000803e3d6000fd5b505050506040513d602081101561214057600080fd5b81019080805190602001909291905050505050508080600101915050611f91565b506000809054906101000a900473ffffffffffffffffffffffffffffffffffffffff1673ffffffffffffffffffffffffffffffffffffffff16ff5b6000809054906101000a900473ffffffffffffffffffffffffffffffffffffffff1673ffffffffffffffffffffffffffffffffffffffff163373ffffffffffffffffffffffffffffffffffffffff16146121f557600080fd5b84600260008273ffffffffffffffffffffffffffffffffffffffff1673ffffffffffffffffffffffffffffffffffffffff16815260200190815260200160002060009054906101000a900460ff1661224c57600080fd5b84600360008273ffffffffffffffffffffffffffffffffffffffff1673ffffffffffffffffffffffffffffffffffffffff16815260200190815260200160002060009054906101000a900460ff166122a357600080fd5b600060046000600754815260200190815260200160002060008973ffffffffffffffffffffffffffffffffffffffff1673ffffffffffffffffffffffffffffffffffffffff16815260200190815260200160002060000160006101000a81548160ff0219169083151502179055508660046000600754815260200190815260200160002060008973ffffffffffffffffffffffffffffffffffffffff1673ffffffffffffffffffffffffffffffffffffffff16815260200190815260200160002060020160006101000a81548173ffffffffffffffffffffffffffffffffffffffff021916908373ffffffffffffffffffffffffffffffffffffffff1602179055508560046000600754815260200190815260200160002060008973ffffffffffffffffffffffffffffffffffffffff1673ffffffffffffffffffffffffffffffffffffffff16815260200190815260200160002060030160006101000a81548173ffffffffffffffffffffffffffffffffffffffff021916908373ffffffffffffffffffffffffffffffffffffffff1602179055508460046000600754815260200190815260200160002060008973ffffffffffffffffffffffffffffffffffffffff1673ffffffffffffffffffffffffffffffffffffffff168152602001908152602001600020600401819055508360046000600754815260200190815260200160002060008973ffffffffffffffffffffffffffffffffffffffff1673ffffffffffffffffffffffffffffffffffffffff168152602001908152602001600020600501819055508260046000600754815260200190815260200160002060008973ffffffffffffffffffffffffffffffffffffffff1673ffffffffffffffffffffffffffffffffffffffff16815260200190815260200160002060060181905550846005600060075481526020019081526020016000206000018190555083600560006007548152602001908152602001600020600101819055507f1b2cf9192ff159a0857f42005efa4d396207762041b02376140ce1011888db2460075488604051808381526020018273ffffffffffffffffffffffffffffffffffffffff1673ffffffffffffffffffffffffffffffffffffffff1681526020019250505060405180910390a1600160076000828254019250508190555050505050505050565b6000809054906101000a900473ffffffffffffffffffffffffffffffffffffffff1673ffffffffffffffffffffffffffffffffffffffff163373ffffffffffffffffffffffffffffffffffffffff161461266157600080fd5b600073ffffffffffffffffffffffffffffffffffffffff168173ffffffffffffffffffffffffffffffffffffffff16141561269b57600080fd5b8073ffffffffffffffffffffffffffffffffffffffff166000809054906101000a900473ffffffffffffffffffffffffffffffffffffffff1673ffffffffffffffffffffffffffffffffffffffff167f8be0079c531659141344cd1fd0a4f28419497f9722a3daafe3b4186f6b6457e060405160405180910390a3806000806101000a81548173ffffffffffffffffffffffffffffffffffffffff021916908373ffffffffffffffffffffffffffffffffffffffff16021790555050565b80600073ffffffffffffffffffffffffffffffffffffffff168173ffffffffffffffffffffffffffffffffffffffff16141561279457600080fd5b600160009054906101000a900473ffffffffffffffffffffffffffffffffffffffff1673ffffffffffffffffffffffffffffffffffffffff1663a9059cbb836008546040518363ffffffff1660e01b8152600401808373ffffffffffffffffffffffffffffffffffffffff1673ffffffffffffffffffffffffffffffffffffffff16815260200182815260200192505050602060405180830381600087803b15801561283f57600080fd5b505af1158015612853573d6000803e3d6000fd5b505050506040513d602081101561286957600080fd5b8101908080519060200190929190505050507f9df4c71cebf5dfd9c3103e52a9041ab213921e254974debdd2f89456b1f080a782604051808273ffffffffffffffffffffffffffffffffffffffff1673ffffffffffffffffffffffffffffffffffffffff16815260200191505060405180910390a15050565b828054600181600116156101000203166002900490600052602060002090601f016020900481019282601f1061292357805160ff1916838001178555612951565b82800160010185558215612951579182015b82811115612950578251825591602001919060010190612935565b5b50905061295e9190612962565b5090565b61298491905b80821115612980576000816000905550600101612968565b5090565b9056fea265627a7a7231582047b693cee5e1b3e88d1f60777459c2a6822773bcd010421b3cf3d9204bff63db64736f6c63430005100032608060405234801561001057600080fd5b5033600360006101000a81548173ffffffffffffffffffffffffffffffffffffffff021916908373ffffffffffffffffffffffffffffffffffffffff160217905550601260ff16600a0a61271002600181905550601260ff16600a0a612710026000803373ffffffffffffffffffffffffffffffffffffffff1673ffffffffffffffffffffffffffffffffffffffff168152602001908152602001600020819055503373ffffffffffffffffffffffffffffffffffffffff16600073ffffffffffffffffffffffffffffffffffffffff167fddf252ad1be2c89b69c2b068fc378daa952ba7f163c4a11628f55a4df523b3ef601260ff16600a0a612710026040518082815260200191505060405180910390a36113d3806101326000396000f3fe608060405234801561001057600080fd5b50600436106100cf5760003560e01c8063661884631161008c578063a9059cbb11610066578063a9059cbb146103e4578063d73dd6231461044a578063dd62ed3e146104b0578063f2fde38b14610528576100cf565b806366188463146102a357806370a082311461030957806395d89b4114610361576100cf565b806306fdde03146100d4578063095ea7b31461015757806318160ddd146101bd57806323b872dd146101db5780632ff2e9dc14610261578063313ce5671461027f575b600080fd5b6100dc61056c565b6040518080602001828103825283818151815260200191508051906020019080838360005b8381101561011c578082015181840152602081019050610101565b50505050905090810190601f1680156101495780820380516001836020036101000a031916815260200191505b509250505060405180910390f35b6101a36004803603604081101561016d57600080fd5b81019080803573ffffffffffffffffffffffffffffffffffffffff169060200190929190803590602001909291905050506105a5565b604051808215151515815260200191505060405180910390f35b6101c5610697565b6040518082815260200191505060405180910390f35b610247600480360360608110156101f157600080fd5b81019080803573ffffffffffffffffffffffffffffffffffffffff169060200190929190803573ffffffffffffffffffffffffffffffffffffffff169060200190929190803590602001909291905050506106a1565b604051808215151515815260200191505060405180910390f35b610269610a55565b6040518082815260200191505060405180910390f35b610287610a64565b604051808260ff1660ff16815260200191505060405180910390f35b6102ef600480360360408110156102b957600080fd5b81019080803573ffffffffffffffffffffffffffffffffffffffff16906020019092919080359060200190929190505050610a69565b604051808215151515815260200191505060405180910390f35b61034b6004803603602081101561031f57600080fd5b81019080803573ffffffffffffffffffffffffffffffffffffffff169060200190929190505050610cfa565b6040518082815260200191505060405180910390f35b610369610d42565b6040518080602001828103825283818151815260200191508051906020019080838360005b838110156103a957808201518184015260208101905061038e565b50505050905090810190601f1680156103d65780820380516001836020036101000a031916815260200191505b509250505060405180910390f35b610430600480360360408110156103fa57600080fd5b81019080803573ffffffffffffffffffffffffffffffffffffffff16906020019092919080359060200190929190505050610d7b565b604051808215151515815260200191505060405180910390f35b6104966004803603604081101561046057600080fd5b81019080803573ffffffffffffffffffffffffffffffffffffffff16906020019092919080359060200190929190505050610f96565b604051808215151515815260200191505060405180910390f35b610512600480360360408110156104c657600080fd5b81019080803573ffffffffffffffffffffffffffffffffffffffff169060200190929190803573ffffffffffffffffffffffffffffffffffffffff169060200190929190505050611192565b6040518082815260200191505060405180910390f35b61056a6004803603602081101561053e57600080fd5b81019080803573ffffffffffffffffffffffffffffffffffffffff169060200190929190505050611219565b005b6040518060400160405280600b81526020017f537072696e67546f6b656e00000000000000000000000000000000000000000081525081565b600081600260003373ffffffffffffffffffffffffffffffffffffffff1673ffffffffffffffffffffffffffffffffffffffff16815260200190815260200160002060008573ffffffffffffffffffffffffffffffffffffffff1673ffffffffffffffffffffffffffffffffffffffff168152602001908152602001600020819055508273ffffffffffffffffffffffffffffffffffffffff163373ffffffffffffffffffffffffffffffffffffffff167f8c5be1e5ebec7d5bd14f71427d1e84f3dd0314c0f7b2291e5b200ac8c7c3b925846040518082815260200191505060405180910390a36001905092915050565b6000600154905090565b60008073ffffffffffffffffffffffffffffffffffffffff168373ffffffffffffffffffffffffffffffffffffffff1614156106dc57600080fd5b6000808573ffffffffffffffffffffffffffffffffffffffff1673ffffffffffffffffffffffffffffffffffffffff1681526020019081526020016000205482111561072757600080fd5b600260008573ffffffffffffffffffffffffffffffffffffffff1673ffffffffffffffffffffffffffffffffffffffff16815260200190815260200160002060003373ffffffffffffffffffffffffffffffffffffffff1673ffffffffffffffffffffffffffffffffffffffff168152602001908152602001600020548211156107b057600080fd5b610801826000808773ffffffffffffffffffffffffffffffffffffffff1673ffffffffffffffffffffffffffffffffffffffff1681526020019081526020016000205461136d90919063ffffffff16565b6000808673ffffffffffffffffffffffffffffffffffffffff1673ffffffffffffffffffffffffffffffffffffffff16815260200190815260200160002081905550610894826000808673ffffffffffffffffffffffffffffffffffffffff1673ffffffffffffffffffffffffffffffffffffffff1681526020019081526020016000205461138490919063ffffffff16565b6000808573ffffffffffffffffffffffffffffffffffffffff1673ffffffffffffffffffffffffffffffffffffffff1681526020019081526020016000208190555061096582600260008773ffffffffffffffffffffffffffffffffffffffff1673ffffffffffffffffffffffffffffffffffffffff16815260200190815260200160002060003373ffffffffffffffffffffffffffffffffffffffff1673ffffffffffffffffffffffffffffffffffffffff1681526020019081526020016000205461136d90919063ffffffff16565b600260008673ffffffffffffffffffffffffffffffffffffffff1673ffffffffffffffffffffffffffffffffffffffff16815260200190815260200160002060003373ffffffffffffffffffffffffffffffffffffffff1673ffffffffffffffffffffffffffffffffffffffff168152602001908152602001600020819055508273ffffffffffffffffffffffffffffffffffffffff168473ffffffffffffffffffffffffffffffffffffffff167fddf252ad1be2c89b69c2b068fc378daa952ba7f163c4a11628f55a4df523b3ef846040518082815260200191505060405180910390a3600190509392505050565b601260ff16600a0a6127100281565b601281565b600080600260003373ffffffffffffffffffffffffffffffffffffffff1673ffffffffffffffffffffffffffffffffffffffff16815260200190815260200160002060008573ffffffffffffffffffffffffffffffffffffffff1673ffffffffffffffffffffffffffffffffffffffff16815260200190815260200160002054905080831115610b7a576000600260003373ffffffffffffffffffffffffffffffffffffffff1673ffffffffffffffffffffffffffffffffffffffff16815260200190815260200160002060008673ffffffffffffffffffffffffffffffffffffffff1673ffffffffffffffffffffffffffffffffffffffff16815260200190815260200160002081905550610c0e565b610b8d838261136d90919063ffffffff16565b600260003373ffffffffffffffffffffffffffffffffffffffff1673ffffffffffffffffffffffffffffffffffffffff16815260200190815260200160002060008673ffffffffffffffffffffffffffffffffffffffff1673ffffffffffffffffffffffffffffffffffffffff168152602001908152602001600020819055505b8373ffffffffffffffffffffffffffffffffffffffff163373ffffffffffffffffffffffffffffffffffffffff167f8c5be1e5ebec7d5bd14f71427d1e84f3dd0314c0f7b2291e5b200ac8c7c3b925600260003373ffffffffffffffffffffffffffffffffffffffff1673ffffffffffffffffffffffffffffffffffffffff16815260200190815260200160002060008873ffffffffffffffffffffffffffffffffffffffff1673ffffffffffffffffffffffffffffffffffffffff168152602001908152602001600020546040518082815260200191505060405180910390a3600191505092915050565b60008060008373ffffffffffffffffffffffffffffffffffffffff1673ffffffffffffffffffffffffffffffffffffffff168152602001908152602001600020549050919050565b6040518060400160405280600381526020017f535054000000000000000000000000000000000000000000000000000000000081525081565b60008073ffffffffffffffffffffffffffffffffffffffff168373ffffffffffffffffffffffffffffffffffffffff161415610db657600080fd5b6000803373ffffffffffffffffffffffffffffffffffffffff1673ffffffffffffffffffffffffffffffffffffffff16815260200190815260200160002054821115610e0157600080fd5b610e52826000803373ffffffffffffffffffffffffffffffffffffffff1673ffffffffffffffffffffffffffffffffffffffff1681526020019081526020016000205461136d90919063ffffffff16565b6000803373ffffffffffffffffffffffffffffffffffffffff1673ffffffffffffffffffffffffffffffffffffffff16815260200190815260200160002081905550610ee5826000808673ffffffffffffffffffffffffffffffffffffffff1673ffffffffffffffffffffffffffffffffffffffff1681526020019081526020016000205461138490919063ffffffff16565b6000808573ffffffffffffffffffffffffffffffffffffffff1673ffffffffffffffffffffffffffffffffffffffff168152602001908152602001600020819055508273ffffffffffffffffffffffffffffffffffffffff163373ffffffffffffffffffffffffffffffffffffffff167fddf252ad1be2c89b69c2b068fc378daa952ba7f163c4a11628f55a4df523b3ef846040518082815260200191505060405180910390a36001905092915050565b600061102782600260003373ffffffffffffffffffffffffffffffffffffffff1673ffffffffffffffffffffffffffffffffffffffff16815260200190815260200160002060008673ffffffffffffffffffffffffffffffffffffffff1673ffffffffffffffffffffffffffffffffffffffff1681526020019081526020016000205461138490919063ffffffff16565b600260003373ffffffffffffffffffffffffffffffffffffffff1673ffffffffffffffffffffffffffffffffffffffff16815260200190815260200160002060008573ffffffffffffffffffffffffffffffffffffffff1673ffffffffffffffffffffffffffffffffffffffff168152602001908152602001600020819055508273ffffffffffffffffffffffffffffffffffffffff163373ffffffffffffffffffffffffffffffffffffffff167f8c5be1e5ebec7d5bd14f71427d1e84f3dd0314c0f7b2291e5b200ac8c7c3b925600260003373ffffffffffffffffffffffffffffffffffffffff1673ffffffffffffffffffffffffffffffffffffffff16815260200190815260200160002060008773ffffffffffffffffffffffffffffffffffffffff1673ffffffffffffffffffffffffffffffffffffffff168152602001908152602001600020546040518082815260200191505060405180910390a36001905092915050565b6000600260008473ffffffffffffffffffffffffffffffffffffffff1673ffffffffffffffffffffffffffffffffffffffff16815260200190815260200160002060008373ffffffffffffffffffffffffffffffffffffffff1673ffffffffffffffffffffffffffffffffffffffff16815260200190815260200160002054905092915050565b600360009054906101000a900473ffffffffffffffffffffffffffffffffffffffff1673ffffffffffffffffffffffffffffffffffffffff163373ffffffffffffffffffffffffffffffffffffffff161461127357600080fd5b600073ffffffffffffffffffffffffffffffffffffffff168173ffffffffffffffffffffffffffffffffffffffff1614156112ad57600080fd5b8073ffffffffffffffffffffffffffffffffffffffff16600360009054906101000a900473ffffffffffffffffffffffffffffffffffffffff1673ffffffffffffffffffffffffffffffffffffffff167f8be0079c531659141344cd1fd0a4f28419497f9722a3daafe3b4186f6b6457e060405160405180910390a380600360006101000a81548173ffffffffffffffffffffffffffffffffffffffff021916908373ffffffffffffffffffffffffffffffffffffffff16021790555050565b60008282111561137957fe5b818303905092915050565b600081830190508281101561139557fe5b8090509291505056fea265627a7a72315820ecce50425aab160ac6b7588894e0203a61f9c4fea2e8ba43fe0bc385b4e8cd7564736f6c63430005100032",
  "source": "pragma solidity >=0.4.0 <0.7.0;\r\n\r\n/// @title PatientRecords\r\n/// @author Nicolas Frega - <frega.nicolas@gmail.com>\r\n/// Allows Medical Record System to maintain records of patients in their network.\r\n/// Records can be accessed by Hospitals if and only if patient provides name.\r\n/// Patients are rewarded with erc20 tokens for providing their name\r\n\r\nimport \"./InterfacePatientRecords.sol\";\r\nimport \"./SpringToken.sol\";\r\nimport \"./TokenDestructible.sol\";\r\nimport \"./SafeMath.sol\";\r\n\r\ncontract PatientRecords is InterfacePatientRecords, TokenDestructible {\r\n    using SafeMath for uint256;\r\n\r\n    /*\r\n    * Events\r\n    */\r\n    event Deposit(address indexed sender, uint256 value);\r\n    event HospitalAddition(address hospital);\r\n    event HospitalRemoval(address hospital);\r\n    event PatientAddition(address patient);\r\n    event PatientRemoval(address patient);\r\n    event PatientRecordAdded(uint256 recordID, address patientAddress);\r\n    event NameAddedToRecords(uint256 recordID, address patientAddress);\r\n    event TokenRewardSet(uint256 tokenReward);\r\n    event PatientPaid(address patientAddress);\r\n\r\n    /*\r\n    * Constans\r\n    */\r\n    uint256 public constant MAX_COUNT = 50;\r\n\r\n    /*\r\n    * Storage\r\n    */\r\n    SpringToken public springToken;\r\n    mapping(address => bool) public isPatient;\r\n    mapping(address => bool) public isHospital;\r\n    mapping(uint256 => mapping(address => Records)) records;\r\n    mapping(uint256 => dateRange) dateRanges;\r\n    mapping(address => mapping(string => uint256)) mappingByName;\r\n    uint256 public recordCount = 0;\r\n    uint256 public tokenRewardAmount;\r\n    address public tokenAddress;\r\n\r\n    struct Records {\r\n        bool providedName;\r\n        string name;\r\n        address patient;\r\n        address hospital;\r\n        uint256 admissionDate;\r\n        uint256 dischargeDate;\r\n        uint256 visitReason;\r\n    }\r\n\r\n    struct dateRange {\r\n        uint256 admissionDate;\r\n        uint256 dischargeDate;\r\n    }\r\n\r\n    /*\r\n    * Modifiers\r\n    */\r\n    modifier validParameters(uint256 count) {\r\n        require(count <= MAX_COUNT && count != 0);\r\n        _;\r\n    }\r\n\r\n    modifier hospitalDoesNotExist(address hospital) {\r\n        require(!isHospital[hospital]);\r\n        _;\r\n    }\r\n\r\n    modifier hospitalExist(address hospital) {\r\n        require(isHospital[hospital]);\r\n        _;\r\n    }\r\n\r\n    modifier patientDoesNotExist(address patient) {\r\n        require(!isPatient[patient]);\r\n        _;\r\n    }\r\n\r\n    modifier patientExist(address patient) {\r\n        require(isPatient[patient]);\r\n        _;\r\n    }\r\n\r\n    modifier notNull(address _address) {\r\n        require(_address != address(0));\r\n        _;\r\n    }\r\n\r\n    modifier notEmpty(string memory name) {\r\n        bytes memory tempString = bytes(name);\r\n        require(tempString.length != 0);\r\n        _;\r\n    }\r\n\r\n    modifier onlyPatient(uint256 recordId) {\r\n        require(records[recordId][msg.sender].patient == msg.sender);\r\n        _;\r\n    }\r\n\r\n    modifier onlyHospital(uint256 recordId, address _patientAddress) {\r\n        require(records[recordId][_patientAddress].hospital == msg.sender);\r\n        _;\r\n    }\r\n\r\n    modifier recordExists(uint256 recordId, address patientAddress) {\r\n        address _hospital = records[recordId][patientAddress].hospital;\r\n        require(_hospital != address(0x0));\r\n        _;\r\n    }\r\n\r\n    modifier patientProvidedName(uint256 recordId, address patient) {\r\n        require(records[recordId][patient].providedName == true);\r\n        _;\r\n    }\r\n\r\n    modifier patientNotProvidedName(uint256 recordId, address patient) {\r\n        require(records[recordId][patient].providedName == false);\r\n        _;\r\n    }\r\n\r\n    modifier higherThanZero(uint256 _uint) {\r\n        require(_uint > 0);\r\n        _;\r\n    }\r\n\r\n    /// @dev Fallback function allows to deposit ether.\r\n    function() external payable {\r\n        if (msg.value > 0) {\r\n            emit Deposit(msg.sender, msg.value);\r\n        }\r\n    }\r\n\r\n    /*\r\n     * Public functions\r\n     */\r\n    /// @dev Contract constructor sets initial hospitals and patients.\r\n    /// @param _hospitals Address array of initial hospitals.\r\n    /// @param _patients Address array of initial patients\r\n    constructor(address[] memory _hospitals, address[] memory _patients)\r\n        public\r\n        validParameters(_hospitals.length)\r\n        validParameters(_patients.length)\r\n    {\r\n        uint256 i;\r\n        for (i = 0; i < _hospitals.length; i++) {\r\n            require(_hospitals[i] != address(0x0));\r\n            isHospital[_hospitals[i]] = true;\r\n        }\r\n\r\n        for (i = 0; i < _patients.length; i++) {\r\n            require(!isHospital[_patients[i]]);\r\n            require(_patients[i] != address(0x0));\r\n            isPatient[_patients[i]] = true;\r\n        }\r\n\r\n        setSpringToken(address(new SpringToken()));\r\n        uint256 initialReward = 1000;\r\n        setSpringTokenReward(initialReward);\r\n    }\r\n\r\n    /// @dev Allows to add a new hospital in the network.\r\n    /// @param _hospital Address of new hospital.\r\n    function addHospital(address _hospital)\r\n        public\r\n        onlyOwner\r\n        hospitalDoesNotExist(_hospital)\r\n        patientDoesNotExist(_hospital)\r\n        notNull(_hospital)\r\n    {\r\n        isHospital[_hospital] = true;\r\n        emit HospitalAddition(_hospital);\r\n    }\r\n\r\n    /// @dev Allows to remove a hospital in the network.\r\n    /// @param _hospital Address of hospital to remove.\r\n    function removeHospital(address _hospital)\r\n        public\r\n        onlyOwner\r\n        hospitalExist(_hospital)\r\n    {\r\n        isHospital[_hospital] = false;\r\n        emit HospitalRemoval(_hospital);\r\n    }\r\n\r\n    /// @dev Allows to add a new patient in the network.\r\n    /// @param _patient Address of new patient.\r\n    function addPatient(address _patient)\r\n        public\r\n        onlyOwner\r\n        patientDoesNotExist(_patient)\r\n        hospitalDoesNotExist(_patient)\r\n        notNull(_patient)\r\n    {\r\n        isPatient[_patient] = true;\r\n        emit PatientAddition(_patient);\r\n    }\r\n\r\n    /// @dev Allows to remove a patient in the network.\r\n    /// @param _patient Address of patient to remove.\r\n    function removePatient(address _patient)\r\n        public\r\n        onlyOwner\r\n        patientExist(_patient)\r\n    {\r\n        isPatient[_patient] = false;\r\n        emit PatientRemoval(_patient);\r\n    }\r\n\r\n    /// @dev Allows to add a patient record in the network.\r\n    /// @param _patientAddress address of the patient for record.\r\n    /// @param _hospital address of the hospital for record.\r\n    /// @param _admissionDate date of admission, simple uint.\r\n    /// @param _dischargeDate date of discharge, simple uint.\r\n    /// @param _visitReason internal code for reason for visit.\r\n    function addRecord(\r\n        address _patientAddress,\r\n        address _hospital,\r\n        uint256 _admissionDate,\r\n        uint256 _dischargeDate,\r\n        uint256 _visitReason\r\n    ) public onlyOwner patientExist(_patientAddress) hospitalExist(_hospital) {\r\n        records[recordCount][_patientAddress].providedName = false;\r\n        records[recordCount][_patientAddress].patient = _patientAddress;\r\n        records[recordCount][_patientAddress].hospital = _hospital;\r\n        records[recordCount][_patientAddress].admissionDate = _admissionDate;\r\n        records[recordCount][_patientAddress].dischargeDate = _dischargeDate;\r\n        records[recordCount][_patientAddress].visitReason = _visitReason;\r\n\r\n        dateRanges[recordCount].admissionDate = _admissionDate;\r\n        dateRanges[recordCount].dischargeDate = _dischargeDate;\r\n\r\n        emit PatientRecordAdded(recordCount, _patientAddress);\r\n\r\n        recordCount += 1;\r\n    }\r\n\r\n    /// @dev Allows a patient to add their name to the record in the network.\r\n    /// @param _recordID ID of the patient specific record.\r\n    /// @param _name Name for the patient\r\n    function addName(uint256 _recordID, string memory _name)\r\n        public\r\n        patientExist(msg.sender)\r\n        onlyPatient(_recordID)\r\n        recordExists(_recordID, msg.sender)\r\n        notEmpty(_name)\r\n        patientNotProvidedName(_recordID, msg.sender)\r\n    {\r\n        records[_recordID][msg.sender].providedName = true;\r\n        records[_recordID][msg.sender].name = _name;\r\n        address hostpitalInRecord = records[_recordID][msg.sender].hospital;\r\n        mappingByName[hostpitalInRecord][_name] += 1;\r\n\r\n        payPatient(msg.sender);\r\n\r\n        emit NameAddedToRecords(_recordID, msg.sender);\r\n    }\r\n\r\n    /// @dev Allows a Hospital to retrieve the record for a patient.\r\n    /// @param _recordID ID of the patient specific record.\r\n    /// @param _patientAddress address of the patient for record.\r\n    function getRecord(uint256 _recordID, address _patientAddress)\r\n        public\r\n        view\r\n        recordExists(_recordID, _patientAddress)\r\n        patientProvidedName(_recordID, _patientAddress)\r\n        onlyHospital(_recordID, _patientAddress)\r\n        returns (\r\n            string memory _name,\r\n            address _hospital,\r\n            uint256 _admissionDate,\r\n            uint256 _dischargeDate,\r\n            uint256 _visitReason\r\n        )\r\n    {\r\n        _name = records[_recordID][_patientAddress].name;\r\n        _hospital = records[_recordID][_patientAddress].hospital;\r\n        _admissionDate = records[_recordID][_patientAddress].admissionDate;\r\n        _dischargeDate = records[_recordID][_patientAddress].dischargeDate;\r\n        _visitReason = records[_recordID][_patientAddress].visitReason;\r\n    }\r\n\r\n    /// @dev Allows a Hospital to view the number of records for a patient.\r\n    /// @param _name Name for the patient\r\n    function getRecordByName(string memory _name)\r\n        public\r\n        view\r\n        hospitalExist(msg.sender)\r\n        returns (uint256 numberOfRecords)\r\n    {\r\n        if (mappingByName[msg.sender][_name] != 0) {\r\n            numberOfRecords = mappingByName[msg.sender][_name];\r\n            return numberOfRecords;\r\n        } else return 0;\r\n    }\r\n\r\n    /// @dev Allows a Hospital to view the number of patients on a given date range.\r\n    /// @param from Starting date\r\n    /// @param to Ending date\r\n    function getCurrentPatients(uint256 from, uint256 to)\r\n        public\r\n        view\r\n        hospitalExist(msg.sender)\r\n        returns (uint256 _numberOfPatients)\r\n    {\r\n        uint256 i;\r\n        _numberOfPatients = 0;\r\n        for (i = 0; i < recordCount; i++) {\r\n            if (\r\n                dateRanges[i].admissionDate >= from &&\r\n                dateRanges[i].dischargeDate <= to\r\n            ) _numberOfPatients += 1;\r\n        }\r\n    }\r\n\r\n    /// @dev sets the amount of Spring token rewards for providing name.\r\n    /// @param _tokenReward Amount of tokens to reward patient.\r\n    function setSpringTokenReward(uint256 _tokenReward)\r\n        public\r\n        onlyOwner\r\n        higherThanZero(_tokenReward)\r\n    {\r\n        tokenRewardAmount = _tokenReward;\r\n        emit TokenRewardSet(_tokenReward);\r\n    }\r\n\r\n    /// @dev gets the balance of patient.\r\n    /// @param _patientAddress address of patient.\r\n    /// @return Returns patient balance.\r\n    function getPatientBalance(address _patientAddress)\r\n        public\r\n        view\r\n        onlyOwner\r\n        returns (uint256)\r\n    {\r\n        return springToken.balanceOf(_patientAddress);\r\n    }\r\n\r\n    /*\r\n    * Internal functions\r\n    */\r\n    /// @dev sets the patient token reward contract.\r\n    /// @param _newspringToken Address of patient token.\r\n    function setSpringToken(address _newspringToken)\r\n        internal\r\n        onlyOwner\r\n        notNull(_newspringToken)\r\n    {\r\n        springToken = SpringToken(_newspringToken);\r\n        tokenAddress = address(springToken);\r\n    }\r\n\r\n    /// @dev pays a patient for providing their name.\r\n    /// @param _patientAddress to receive tokens.\r\n    function payPatient(address _patientAddress)\r\n        private\r\n        notNull(_patientAddress)\r\n    {\r\n        springToken.transfer(_patientAddress, tokenRewardAmount);\r\n        emit PatientPaid(_patientAddress);\r\n    }\r\n\r\n}\r\n",
  "sourcePath": "D:/Github/Ethereum-Medical-Records/contracts/PatientRecords.sol",
  "compiler": {
    "name": "solc",
    "version": "0.5.16+commit.9c3226ce.Emscripten.clang"
  },
  "schemaVersion": "3.0.21",
  "updatedAt": "2020-02-08T16:29:36.050Z",
  "networkType": "ethereum",
  "devdoc": {
    "methods": {
      "addHospital(address)": {
        "details": "Allows to add a new hospital in the network.",
        "params": {
          "_hospital": "Address of new hospital."
        }
      },
      "addName(uint256,string)": {
        "details": "Allows a patient to add their name to the record in the network.",
        "params": {
          "_name": "Name for the patient",
          "_recordID": "ID of the patient specific record."
        }
      },
      "addPatient(address)": {
        "details": "Allows to add a new patient in the network.",
        "params": {
          "_patient": "Address of new patient."
        }
      },
      "addRecord(address,address,uint256,uint256,uint256)": {
        "details": "Allows to add a patient record in the network.",
        "params": {
          "_admissionDate": "date of admission, simple uint.",
          "_dischargeDate": "date of discharge, simple uint.",
          "_hospital": "address of the hospital for record.",
          "_patientAddress": "address of the patient for record.",
          "_visitReason": "internal code for reason for visit."
        }
      },
      "constructor": {
        "details": "Contract constructor sets initial hospitals and patients.",
        "params": {
          "_hospitals": "Address array of initial hospitals.",
          "_patients": "Address array of initial patients"
        }
      },
      "destroy(address[])": {
        "params": {
          "tokens": "List of addresses of ERC20 or ERC20Basic token contracts to refund."
        }
      },
      "getCurrentPatients(uint256,uint256)": {
        "details": "Allows a Hospital to view the number of patients on a given date range.",
        "params": {
          "from": "Starting date",
          "to": "Ending date"
        }
      },
      "getPatientBalance(address)": {
        "details": "gets the balance of patient.",
        "params": {
          "_patientAddress": "address of patient."
        },
        "return": "Returns patient balance."
      },
      "getRecord(uint256,address)": {
        "details": "Allows a Hospital to retrieve the record for a patient.",
        "params": {
          "_patientAddress": "address of the patient for record.",
          "_recordID": "ID of the patient specific record."
        }
      },
      "getRecordByName(string)": {
        "details": "Allows a Hospital to view the number of records for a patient.",
        "params": {
          "_name": "Name for the patient"
        }
      },
      "removeHospital(address)": {
        "details": "Allows to remove a hospital in the network.",
        "params": {
          "_hospital": "Address of hospital to remove."
        }
      },
      "removePatient(address)": {
        "details": "Allows to remove a patient in the network.",
        "params": {
          "_patient": "Address of patient to remove."
        }
      },
      "setSpringTokenReward(uint256)": {
        "details": "sets the amount of Spring token rewards for providing name.",
        "params": {
          "_tokenReward": "Amount of tokens to reward patient."
        }
      },
      "transferOwnership(address)": {
        "details": "Allows the current owner to transfer control of the contract to a newOwner.",
        "params": {
          "newOwner": "The address to transfer ownership to."
        }
      }
    }
  },
  "userdoc": {
    "methods": {
      "destroy(address[])": {
        "notice": "Terminate contract and refund to ownerThe called token contracts could try to re-enter this contract. Only supply token contracts you trust."
      }
    }
  }
}