{
  "contractName": "SafeMathMock",
  "abi": [
    {
      "constant": true,
      "inputs": [
        {
          "internalType": "uint256",
          "name": "a",
          "type": "uint256"
        },
        {
          "internalType": "uint256",
          "name": "b",
          "type": "uint256"
        }
      ],
      "name": "mul",
      "outputs": [
        {
          "internalType": "uint256",
          "name": "",
          "type": "uint256"
        }
      ],
      "payable": false,
      "stateMutability": "pure",
      "type": "function"
    },
    {
      "constant": true,
      "inputs": [
        {
          "internalType": "uint256",
          "name": "a",
          "type": "uint256"
        },
        {
          "internalType": "uint256",
          "name": "b",
          "type": "uint256"
        }
      ],
      "name": "div",
      "outputs": [
        {
          "internalType": "uint256",
          "name": "",
          "type": "uint256"
        }
      ],
      "payable": false,
      "stateMutability": "pure",
      "type": "function"
    },
    {
      "constant": true,
      "inputs": [
        {
          "internalType": "uint256",
          "name": "a",
          "type": "uint256"
        },
        {
          "internalType": "uint256",
          "name": "b",
          "type": "uint256"
        }
      ],
      "name": "sub",
      "outputs": [
        {
          "internalType": "uint256",
          "name": "",
          "type": "uint256"
        }
      ],
      "payable": false,
      "stateMutability": "pure",
      "type": "function"
    },
    {
      "constant": true,
      "inputs": [
        {
          "internalType": "uint256",
          "name": "a",
          "type": "uint256"
        },
        {
          "internalType": "uint256",
          "name": "b",
          "type": "uint256"
        }
      ],
      "name": "add",
      "outputs": [
        {
          "internalType": "uint256",
          "name": "",
          "type": "uint256"
        }
      ],
      "payable": false,
      "stateMutability": "pure",
      "type": "function"
    }
  ],
  "bytecode": "0x608060405234801561001057600080fd5b5061027f806100206000396000f3fe608060405234801561001057600080fd5b506004361061004c5760003560e01c8063771602f714610051578063a391c15b1461009d578063b67d77c5146100e9578063c8a4ac9c14610135575b600080fd5b6100876004803603604081101561006757600080fd5b810190808035906020019092919080359060200190929190505050610181565b6040518082815260200191505060405180910390f35b6100d3600480360360408110156100b357600080fd5b810190808035906020019092919080359060200190929190505050610195565b6040518082815260200191505060405180910390f35b61011f600480360360408110156100ff57600080fd5b8101908080359060200190929190803590602001909291905050506101a9565b6040518082815260200191505060405180910390f35b61016b6004803603604081101561014b57600080fd5b8101908080359060200190929190803590602001909291905050506101bd565b6040518082815260200191505060405180910390f35b600061018d83836101d1565b905092915050565b60006101a183836101eb565b905092915050565b60006101b583836101ff565b905092915050565b60006101c98383610216565b905092915050565b60008183019050828110156101e257fe5b80905092915050565b60008183816101f657fe5b04905092915050565b60008282111561020b57fe5b818303905092915050565b6000808314156102295760009050610244565b81830290508183828161023857fe5b041461024057fe5b8090505b9291505056fea265627a7a723158201c9deed1082c4eee350bef35f379a697c4dac68db8695c6dfd2b155f3fd1201564736f6c63430005100032",
  "source": "pragma solidity >=0.4.0 <0.7.0;\r\n\r\nimport \"../SafeMath.sol\";\r\n\r\ncontract SafeMathMock {\r\n    function mul(uint256 a, uint256 b) public pure returns (uint256) {\r\n        return SafeMath.mul(a, b);\r\n    }\r\n\r\n    function div(uint256 a, uint256 b) public pure returns (uint256) {\r\n        return SafeMath.div(a, b);\r\n    }\r\n\r\n    function sub(uint256 a, uint256 b) public pure returns (uint256) {\r\n        return SafeMath.sub(a, b);\r\n    }\r\n\r\n    function add(uint256 a, uint256 b) public pure returns (uint256) {\r\n        return SafeMath.add(a, b);\r\n    }\r\n}\r\n",
  "sourcePath": "D:/Github/Ethereum-Medical-Records/contracts/mocks/SafeMathMock.sol",
  "compiler": {
    "name": "solc",
    "version": "0.5.16+commit.9c3226ce.Emscripten.clang"
  },
  "schemaVersion": "3.0.21",
  "updatedAt": "2020-02-08T16:29:28.937Z",
  "devdoc": {
    "methods": {}
  },
  "userdoc": {
    "methods": {}
  }
}