{
  "contractName": "TokenDestructible",
  "abi": [
    {
      "inputs": [],
      "payable": true,
      "stateMutability": "payable",
      "type": "constructor"
    },
    {
      "anonymous": false,
      "inputs": [
        {
          "indexed": true,
          "internalType": "address",
          "name": "previousOwner",
          "type": "address"
        },
        {
          "indexed": true,
          "internalType": "address",
          "name": "newOwner",
          "type": "address"
        }
      ],
      "name": "OwnershipTransferred",
      "type": "event"
    },
    {
      "constant": false,
      "inputs": [
        {
          "internalType": "address payable",
          "name": "newOwner",
          "type": "address"
        }
      ],
      "name": "transferOwnership",
      "outputs": [],
      "payable": false,
      "stateMutability": "nonpayable",
      "type": "function"
    },
    {
      "constant": false,
      "inputs": [
        {
          "internalType": "address[]",
          "name": "tokens",
          "type": "address[]"
        }
      ],
      "name": "destroy",
      "outputs": [],
      "payable": false,
      "stateMutability": "nonpayable",
      "type": "function"
    }
  ],
  "bytecode": "0x6080604052336000806101000a81548173ffffffffffffffffffffffffffffffffffffffff021916908373ffffffffffffffffffffffffffffffffffffffff160217905550610527806100536000396000f3fe608060405234801561001057600080fd5b50600436106100365760003560e01c8063c6786e5a1461003b578063f2fde38b146100f3575b600080fd5b6100f16004803603602081101561005157600080fd5b810190808035906020019064010000000081111561006e57600080fd5b82018360208201111561008057600080fd5b803590602001918460208302840111640100000000831117156100a257600080fd5b919080806020026020016040519081016040528093929190818152602001838360200280828437600081840152601f19601f820116905080830192505050505050509192919290505050610137565b005b6101356004803603602081101561010957600080fd5b81019080803573ffffffffffffffffffffffffffffffffffffffff1690602001909291905050506103a1565b005b6000809054906101000a900473ffffffffffffffffffffffffffffffffffffffff1673ffffffffffffffffffffffffffffffffffffffff163373ffffffffffffffffffffffffffffffffffffffff161461019057600080fd5b60008090505b81518110156103665760008282815181106101ad57fe5b6020026020010151905060008173ffffffffffffffffffffffffffffffffffffffff166370a08231306040518263ffffffff1660e01b8152600401808273ffffffffffffffffffffffffffffffffffffffff1673ffffffffffffffffffffffffffffffffffffffff16815260200191505060206040518083038186803b15801561023657600080fd5b505afa15801561024a573d6000803e3d6000fd5b505050506040513d602081101561026057600080fd5b810190808051906020019092919050505090508173ffffffffffffffffffffffffffffffffffffffff1663a9059cbb6000809054906101000a900473ffffffffffffffffffffffffffffffffffffffff16836040518363ffffffff1660e01b8152600401808373ffffffffffffffffffffffffffffffffffffffff1673ffffffffffffffffffffffffffffffffffffffff16815260200182815260200192505050602060405180830381600087803b15801561031b57600080fd5b505af115801561032f573d6000803e3d6000fd5b505050506040513d602081101561034557600080fd5b81019080805190602001909291905050505050508080600101915050610196565b506000809054906101000a900473ffffffffffffffffffffffffffffffffffffffff1673ffffffffffffffffffffffffffffffffffffffff16ff5b6000809054906101000a900473ffffffffffffffffffffffffffffffffffffffff1673ffffffffffffffffffffffffffffffffffffffff163373ffffffffffffffffffffffffffffffffffffffff16146103fa57600080fd5b600073ffffffffffffffffffffffffffffffffffffffff168173ffffffffffffffffffffffffffffffffffffffff16141561043457600080fd5b8073ffffffffffffffffffffffffffffffffffffffff166000809054906101000a900473ffffffffffffffffffffffffffffffffffffffff1673ffffffffffffffffffffffffffffffffffffffff167f8be0079c531659141344cd1fd0a4f28419497f9722a3daafe3b4186f6b6457e060405160405180910390a3806000806101000a81548173ffffffffffffffffffffffffffffffffffffffff021916908373ffffffffffffffffffffffffffffffffffffffff1602179055505056fea265627a7a72315820e4b8db1e8c44144f735c939f119a479c9557f9a43d4bc45e6547a3f0bbff21c864736f6c63430005100032",
  "source": "pragma solidity >=0.4.0 <0.7.0;\r\n\r\nimport \"./Ownable.sol\";\r\nimport \"./ERC20Basic.sol\";\r\n\r\n/**\r\n * @title TokenDestructible:\r\n * @author Remco Bloemen <remco@2π.com>\r\n * @dev Base contract that can be destroyed by owner. All funds in contract including\r\n * listed tokens will be sent to the owner.\r\n */\r\ncontract TokenDestructible is Ownable {\r\n    constructor() public payable {}\r\n\r\n    /**\r\n    * @notice Terminate contract and refund to owner\r\n    * @param tokens List of addresses of ERC20 or ERC20Basic token contracts to\r\n    refund.\r\n    * @notice The called token contracts could try to re-enter this contract. Only\r\n    supply token contracts you trust.\r\n    */\r\n    function destroy(address[] memory tokens) public onlyOwner {\r\n        // Transfer tokens to owner\r\n        for (uint256 i = 0; i < tokens.length; i++) {\r\n            ERC20Basic token = ERC20Basic(tokens[i]);\r\n            uint256 balance = token.balanceOf(address(this));\r\n            token.transfer(owner, balance);\r\n        }\r\n        // Transfer Eth to owner and terminate contract\r\n        selfdestruct(owner);\r\n    }\r\n}\r\n",
  "sourcePath": "D:\\Github\\Ethereum-Medical-Records\\contracts\\TokenDestructible.sol",
  "compiler": {
    "name": "solc",
    "version": "0.5.16+commit.9c3226ce.Emscripten.clang"
  },
  "schemaVersion": "3.0.21",
  "updatedAt": "2020-02-08T16:29:34.479Z",
  "devdoc": {
    "author": "Remco Bloemen <remco@2π.com>",
    "details": "Base contract that can be destroyed by owner. All funds in contract including listed tokens will be sent to the owner.",
    "methods": {
      "destroy(address[])": {
        "params": {
          "tokens": "List of addresses of ERC20 or ERC20Basic token contracts to refund."
        }
      },
      "transferOwnership(address)": {
        "details": "Allows the current owner to transfer control of the contract to a newOwner.",
        "params": {
          "newOwner": "The address to transfer ownership to."
        }
      }
    },
    "title": "TokenDestructible:"
  },
  "userdoc": {
    "methods": {
      "destroy(address[])": {
        "notice": "Terminate contract and refund to ownerThe called token contracts could try to re-enter this contract. Only supply token contracts you trust."
      }
    }
  }
}